:040000006F10D02489
:10000400000000000000000090000020A402002076
:10001400A9BDF9F55C030020000000000000000009
:100024005C0300209000002000000000000000009D
:10003400900000200000000090000020000000005C
:1000440090000020900000209000002090000020EC
:1000540090000020640C00209000002000000000AC
:10006400900000209000002090000020D803002081
:10007400C203002090000020900000209000002087
:1000840090000020900000209000002090000020AC
:1000940001A04111B7170040985F3AC6945F3247F8
:1000A400E39CE6FE3245410182800111130780087A
:1000B400F337078093F787083EC201000100B717A2
:1000C4000040930570052380B704130680FA23804B
:1000D400C7040100010083C6B70493F6F60DA38597
:1000E400D704238007049246F3A60680010001008A
:1000F40093760502D5CEF336078093F6860836C488
:10010400010001002380B7042380C704010001001B
:10011400B70614007D89558D88C7010001000100D0
:10012400010023800704A246F3A606800100010013
:1001340073370780137787083AC6010001002380CC
:10014400B7042380C7040100010001000100372720
:10015400004093061005A303D78023800704B24709
:10016400F3A707800100010093078008F3B7078015
:1001740093F787083ECE01000100B717004013072C
:1001840070052380E704130780FA2380E704010045
:10019400010003C7B70413670708A385E704238096
:1001A4000704F247F3A7078001000100056182807C
:1001B40093760504BDC6F336078093F6860836C8E1
:1001C400010001002380B7042380C704010001005B
:1001D400B7061400938606047D89558D88C70100EF
:1001E40001000100010023800704C246F3A6068033
:1001F4000100010073370780137787083ACA0100AA
:1002040001002380B7042380C704010001003727BD
:10021400004093062005A303D78023800704D24718
:1002240081B773370780137787083ACC0100010040
:100234002380B7042380C704010001009847136793
:10024400070C98C723800704E24719BF01118146B0
:1002540001468145114506CE992E93078008F3B7D0
:10026400078093F787083EC601000100B7170040D6
:10027400130770052380E704130780FA2380E7043B
:100284000100010003C76704136717002383E70411
:1002940023800704B247F3A7078001000100F2405E
:1002A400056182804111814601468145114501263F
:1002B40013078008F337078093F787083EC40100CB
:1002C4000100B7170040130670052380C704930686
:1002D40080FA2380D70401000100FD552396B7025C
:1002E40023800704A245F3A50580010001007337AC
:1002F4000780137787083AC6010001002380C704EA
:100304002380D7040100010003C7670413671700A3
:100314002383E70423800704B247F3A7078001007F
:10032400010001A0BD473305F50201007D1575FDEF
:100334008280411122C426C206C6AA8401446317DE
:100344009400B24022449244410182800504130582
:10035400803E4204C13F4180DDB7000093050002A6
:1003640073A0458082457390153492402242B24274
:100374004243D2436244F244025592552256B25645
:100384004257D2576258F25806499649264AB64A05
:10039400464BD64B664CF64C065D965D265EB65EC5
:1003A400465FD65F0961730020304111B7170040E2
:1003B400985F3AC6945F3247E39CE6FE32454101BA
:1003C4008280B7170040130700032388E70285479C
:1003D40023A8F18273002030373700408347474019
:1003E4009946BD8B638ED702314741116383E70879
:1003F40011476394E702A307010083C521811725F0
:100404000000035565A2373800401386415993888C
:1004140001888347F1006399F5004101730020309E
:1004240083475740730020308347E10063FBA702F2
:100434008347F10003478840B2972380E7000347CE
:10044400F1008347E100329793F7F70F0347070062
:100454009386170093F6F60FC6972307D1002380DF
:10046400E7008347F100850793F7F70FA307F1002F
:100474004DB713854159972000E0E780005E13755E
:10048400F50FA307A100172600000356E69981473C
:1004940093850188138541590347F10063EDE70013
:1004A4008345F10013854159972000E0E7806058A7
:1004B400230701009DB70347E1006373C7020347A5
:1004C400E1001377F70F9306170093F6F60F23074F
:1004D400D100B306F50083C606002E972300D7008B
:1004E400850793F7F70F4DBF411106C6EF00B02BF8
:1004F400F5BF2303048015472303E480010023028E
:10050400A480828083076480E3CE07FE23030480F3
:10051400828083076480E3CE07FE034544808280A3
:1005240083076480E3CE07FE2302A4808280411106
:1005340026C44AC24EC006C61377F50BAD47AA8936
:100544002E8995446306F70019456537653F8D4448
:100554004E854537FD59FD1463983401B240A244D9
:100564001249824941018280135509011375F50F1F
:10057400453F2209CDB7011126CC06CEB7040800A9
:1005840051371545BD37713769372AC6A53F3245FE
:100594009377150089EB136515001375F50FF24079
:1005A400E24405618280FD14E9FC0145CDBF397147
:1005B40026DC4ADA4ED852D656D45AD25ED006DE5B
:1005C40062CE66CCB7E700E07D5783AA070022C657
:1005D40003AA470023A0E71823A2E718B71700408F
:1005E400130770052380E704130780FA2380E704C8
:1005F40083C74704930B75FFB684E20793FBFB0F95
:100604008546AA892E8B328937240040E187015719
:1006140063FA76016308D500894613070002631361
:10062400D5000157D98F93F7F70FB71C00402382E9
:10063400FC0411472303E4801305F00F5D3D094CCE
:10064400D135636D7C11B7050700DA95378707004C
:10065400795563F2E504B3879500636EF702370BAF
:100664000800A94733EB65016399F90689E48144DD
:10067400513D26850DA0DA850945553D05090345FB
:10068400F9FFFD14050B693D81C49377FB0FFDF75A
:10069400DD3569FD7D55B7170040130770052380CC
:1006A400E704130780FA2380E70403C74704418B58
:1006B4002382E704F250B7E700E023A0571123A2F6
:1006C4004711E25432445259C259325AA25A125B67
:1006D400825B724CE24C21618280A5476395F906E6
:1006E40085691309F00FB3069900B3742B01B6940E
:1006F4001349F9FFB3749900856B33796901416B30
:100704009387F9FFB3F7270199E363FC340193D985
:100714004900C147E3E637FF99BF0569C1697D19FF
:10072400D9B71305800D638869011305000263843A
:10073400790113051008CA85DD3B353D21DD4E994D
:10074400B3843441D9B7DA852D45D533CA94E3004F
:1007540099F205097D3BA30FA9FED5BF9387F9FF45
:1007640093F7F70F6361FC0C83C71C04130730086D
:10077400631FF70437070800636BEB04B3079B00A0
:10078400B706100063F5D704334BEB008947639336
:10079400F9068980D549E38C04ECDA850945413BA7
:1007A40011090327C9FF91472320E48003076480CC
:1007B400E34E07FE23033481FD17EDFBFD14110BFB
:1007C40081C49377FB0FE9FF7D3371F5E1B5B7176A
:1007D400004003C75704B70708001377070219E35B
:1007E400B78707007955E378FBEA33079B00E3FFFB
:1007F400E7F855B58547E382F9F2DA852D45053BDF
:100804009389F4FFE38504E6293393F7390091EBE8
:10081400832604800327090093074900E39AE6E44A
:100824003E89CE84F1BFB5476396F9001305900B5A
:10083400C93135BDB1471305B00AE38BF9FE9947B9
:100844006391F904B7050800B365BB002D45C531B4
:1008540081448D4BA14975396396740183270480C3
:100864002320F9008504E39834FF832704801317B9
:100874002B01635507002312F900D5BB2322F9008D
:10088400FDB39D476399F90281451305B0044531D1
:10089400BD442320090023220900FD599D3993F703
:1008A4007400CA9703C70700FD14398D2380A7007D
:1008B400E39634FF6DBBA1476392F9046D3981441B
:1008C400630D0B008D479304C0036308FB0093047E
:1008D400000563048B01930440041375C507E30802
:1008E40095D81945393139390545213126850D39D0
:1008F40009453D314931E31C05D669BB91476399EC
:10090400F90013056006F536F53E130590090DB799
:10091400E38F09D4F154A9BBBD6601471746000013
:100924001306C6C8938606A685458347060093F733
:10093400F70F91C382800507E3F9E6FE97470000AD
:100944002386B7C6DDB77D166206618693178601D6
:10095400E18763D40700014582809317260033079B
:10096400F500AE9718439C4363E7E7007D16E37FE9
:10097400F7FC7D55828005458280FD15E205E18501
:1009840013978501618793F7F50F63480700FD15F9
:10099400139725002A97584365D7138517006205D6
:1009A400618582803308B5021C4283A80600B335F2
:1009B400B502C29733B50701AE984695854863677B
:1009C400B5006394A50063E3070181480C43C69511
:1009D4000CC388C21CC28280814713978701618738
:1009E4006343B7008280139727002A9723200700C8
:1009F4008507E5B78147014793968701E18663C57B
:100A0400B60013351700828093962700AA96944265
:100A14008507558FD5B793D755408A07AA979C4326
:100A240005453315B5007D8D8280171300E0E7027C
:100A340003102A84993705C5931725003E9403278C
:100A4400C4FF814711EB7D1516053E95420541858E
:100A5400171300E06700E30F05838507E5B7014539
:100A6400C5BF81471397870161876343C7008280AD
:100A740013972700B386E50094422A97850714C389
:100A8400D5B77D1662066186014793178601E18713
:100A940063D5070013351700828093172600B30629
:100AA400F500AE9794429C437D16B58F5D8FF1BFE0
:100AB4008A05AA9501476363B500828083A6C5FFB2
:100AC400F11593D71600D98F9CC11397F601E5B79A
:100AD4002A830148014701456343D7008280B387D5
:100AE400050183A80700B30706019C43C697AA978C
:100AF4006384F80033B517010507B30803016207DF
:100B040023A0F80061871108C1BF2A8301478147E8
:100B1400014563C3D70082803388E5008328080039
:100B2400330EE600032E0E003388A8403308C84174
:100B34006384080133B508018507B308E300E207BD
:100B440023A00801E1871107E9B7171300E0E702C2
:100B540003FE0111B286B2842E86AA850A857537F2
:100B64002A84A6850A857935333480000604133532
:100B74001500018D0561171300E0670083FD17134D
:100B840000E0E70243F84111AA89AE8A328BB684A9
:100B940002C202C402C60144131C8401135C8C41CA
:100BA40063499C02939B1400FD1B0549138CF4FFBD
:100BB400F15C3304890162046184634D74059247D6
:100BC4008E04CE9423AEF4FE4101171300E06700B7
:100BD40003F713192400B30B2B01014A93172A00BE
:100BE400D69783A50B0088437800340050005D3B02
:100BF400050A93178A01E187F11BE351FCFE924732
:100C04004E9905042320F900A2473EC2B24702C60A
:100C14003EC459B7131A8901135A8A41131D24007B
:100C240093178A01E18763CF970092470A044E9491
:100C34001CC0A24705091379F90F3EC2B24702C688
:100C44003EC485BFB3079A0313152A00569508417D
:100C5400780034005000050AEA97DA978C439933F8
:100C6400C1B70000197106C212C416C61AC81ECA3A
:100C740022CC26CE2AD02ED232D436D63AD83EDA58
:100C840042DC46DECAC0CEC2D2C4D6C6DAC8DECA88
:100C9400E2CCE6CEEAD0EED2F2D4F6D6FAD8FEDA38
:100CA400938581828841E700050092402242B24246
:100CB4004243D2436244F244025592552256B256FC
:100CC4004257D2576258F25806499649264AB64ABC
:100CD400464BD64B664CF64C065D965D265EB65E7C
:100CE400465FD65F096173002030B7E700E09843A0
:100CF400B706200023A0D718758F0F10000001C578
:100D040099C1814711E6B7E700E023A0E71082808C
:100D1400B386F50003C80600B306F50085072380F3
:100D24000601E317F6FEC5B737E700E01C43B70634
:100D340020002320D718F58F0F10000001C53307BA
:100D4400C50011E637E700E02320F710828005058F
:100D5400A30FB5FEE31DE5FEF5B737E700E01C433E
:100D6400B70620002320D718F58F0F10000001C507
:100D740099C1014711EA37E700E02320F710054540
:100D840082800507E309E6FE3308E500B386E50043
:100D94000348080083C60600E305D8FE37E700E0F1
:100DA4002320F7100145828037E700E01C43B70693
:100DB40020002320D718F58F0F1000001307F6FF2B
:100DC400BA952A966317C50037E700E02320F71089
:100DD4008280FD1503C715000505A30FE5FEDDB7E9
:100DE40037E700E01C43B70620002320D718F58F0F
:100DF4000F10000001C53307C50019E637E700E00E
:100E04002320F7100145828005058346F5FFE3970B
:100E1400B6FEE31BE5FE37E700E02320F7100545A7
:100E24008280797197470000938787C922D48043D1
:100E340006D626D24AD04ECE52CC56CA5AC85EC620
:100E440079C0B7C4C901014B974900009389C9C649
:100E54009384F437174A0000130ACAC6974A00005D
:100E6400938ACAC017490000130989CA835724000A
:100E740095E35C44631D0B00174700002322F7C46D
:100E8400832BC4002285EF00902B5E84B9A823260F
:100E9400FB00FDB783A7090082971C443307F54084
:100EA4006376F500032749001D8F2A9763E2E4085F
:100EB4009747000023A407BC83552400034504007E
:100EC400976001E0E780E0805C405844A1CB0C448B
:100ED40003264900AE97BE8663E4B70063E4C70007
:100EE400B386C74014C4228B3A8449F09747000064
:100EF4009387C7B79C4B09476372F706F9171747DF
:100F04000000232DF7B6B250225492540259F249EC
:100F1400624AD24A424BB24B4561828063170B004E
:100F24009747000023AEE7B8A1BF2326EB0089BF93
:100F340003274A0209CF63EFA7003385A74083A79D
:100F44000A016376F5009747000023A9A7B2228B14
:100F5400404461BF03274900BA97C5B797470000CB
:100F640023AE07B04DB7974700009387E7B99C437A
:100F740085C3411106C682979747000083C7A7B36C
:100F840089E79747000023A107B8B2404101828056
:100F94009747000083C727B291E79747000023A52E
:100FA40007B682808280411122C4174400001304D2
:100FB400A4AE1C4006C626C24AC091C78297974772
:100FC400000023AB07AC9747000083C737C9858B64
:100FD40017490000130949C889CF83477900194785
:100FE4006312F71097470000A38A07C6C1215C4427
:100FF40082971C4491C3829797440000938404AC65
:10100400984017460000034676A69747000083C71A
:10101400E7A593961700BA9683D60600E5C29747CC
:10102400000083C7A7A463E5C70E97470000238F7A
:1010340007A21C40639E0714974700009387C7A725
:101044009C436387071497470000938767ACDC438E
:10105400174700002324F7A2E9339747000083C70A
:1010640057C0639707129747000083C777BF91CF94
:101074008347790093F7F70F89EB97470000A38123
:1010840007BE977001E0E780C0169747000093877A
:1010940067A3DC53638E070E974700009387079D71
:1010A4009C4BFDC78347790015476363F70E974749
:1010B400000083C7E7BF918BE1EF9747000083C728
:1010C400879FF9E790409746000083C6369A63C726
:1010D400D70C2244B240924402494101176301E013
:1010E4006700C38E834779001D47E314F7F09747E1
:1010F4000000A38507B65D2E1C48DDBD850793F768
:10110400F70F974600002383F696E3E0C7F001BF8C
:1011140086073E9783550700231007009747000072
:10112400239A0798974700009387C7969C431745CF
:1011340000000345A59313172500BA979C43829793
:101144009747000083D70797174700000347079284
:1011540093C7F7FF7D8D9317170098403E978357E9
:1011640007005D8D2310A7009747000083C70790F1
:1011740091C7850717470000230AF78E1747000019
:101184000347C78E9747000083C7578EE37FF7E86E
:10119400B2402244924402494101828013971700CD
:1011A4003297035707006DF7850715B737C7004017
:1011B4008326C720B707FCFFFD17F58F2326F720EA
:1011C40001000100974700009387478AC84F83278F
:1011D40087262326D7206A0593C7F7FF99835D8D59
:1011E40082800000EFF03FD8730000000000000090
:1011F400974200009382228C038302002380020022
:10120400630F0300F32510342EC097050000938567
:10121400A5FD73901534EF00204C7300203086DC5C
:10122400EF00804BE6508280000017470000130750
:1012340067A21443411122C49C5E4AC006C6998326
:1012440026C2858B3A8417490000130969A0D1CBC3
:10125400930700069CDE17470000034747A0930747
:101264000008974400009384249F631BF70083279E
:1012740009009C4393F70704174700002301F79ED6
:1012840083C7040093F707049DC39747000093871F
:10129400A7829C4382979747000023ADA79C83C7EE
:1012A400040093F7F70B174700002307F79A83C747
:1012B400440093F7070495E7854717470000A30FF9
:1012C400F798974700009387A79B9C433707020032
:1012D40098C7130700FC974600002381E6989848B6
:1012E400F8D318401C5F9183858B8DC31C5F93E7F3
:1012F40007011CDF97470000938787989C4323A22C
:101304000706854717470000230AF7948327090037
:10131400D8430583058B19C7D843759BD8C3D843D5
:10132400799BD8C3B240224492440249410182804D
:10133400ED3D730020309317D50063D30702974720
:1013440000009387E7939C437D57B8D797370000F5
:101354009387C771DC4F8507173700002326F77280
:10136400937785008DC39747000083C7078F93E762
:101374001700174700002302F78E930700F817475A
:101384000000230DF78C9377150099CB9747000045
:1013940083C7978C93E7170017470000A30EF78ABB
:1013A4009377650095CF17470000A309078A137741
:1013B4004500974700009387278A4DCB83C70700D2
:1013C40093E71700174700002308F78897470000A2
:1013D4009387478898435C57F19B93E717005CD742
:1013E4009317F50063D40702174700000347079ECD
:1013F400418B974700009387E79551C383C78707BD
:1014040093E70702174700002302F79C9317E500B0
:1014140063D707029747000083C74784E207E18741
:1014240063D707008547174700002309F7829747CA
:1014340000009387E7849C433707020098C79317FB
:10144400C50063D407021747000003473798058B8C
:10145400974700009387079029C383C7970793E7AB
:10146400270017470000A303F796828083C737003D
:1014740093E7170017370000A301F77E81BF03C766
:10148400870789463D8B6308D70083C787070D47C5
:10149400BD8BE39DE7F69147B5B703C79707118B5B
:1014A40069D783C7970793E7870065BF973700001D
:1014B4009387077D9443973700009387E77903C7A1
:1014C4000700058B11CB97370000238907789737DE
:1014D4000000A3850778828003C71700058B65F792
:1014E400F85271FF83C75700DDB7173700001307A1
:1014F400677603280700832788039583858BADEFE0
:1015040011C683270803BD832300F6009DC61C4330
:10151400985B4607935767016356070093E707C034
:10152400C207C18303970600C207C18709C7BA97D8
:101534000947B3C7E7022390F6008DCD8345150014
:1015440095C99737000083C7877193F707041387FA
:101554009500894585C33A95834705000547994514
:1015640093F6F7066398E600E207E187814563D3C3
:101574000700B9452E8582808545EDBF411126C2FD
:1015840006C622C4973400009384846F3DED9440D2
:10159400AE87F8527DFF37F400E03E8597370000B0
:1015A400238D076A832704D1B285ED9B2328F4D0C9
:1015B400832704D193E787022328F4D073005010C3
:1015C400977001E0E780A0AF9737000093878768A2
:1015D4009C43B70680009843558F98C3D857719B96
:1015E400D8D797370000A38B076697370000A385E9
:1015F40007669C40094798C3832704D193E7870073
:101604002328F4D0730050100DA08D476315F50402
:1016140097370000938707649C43B706800098437C
:10162400558F98C3D857719BD8D79440173700006B
:101634001307876283472700858B89EB834737002D
:10164400858BC1CB97370000238A0760B2402244C0
:101654009244410182808547E319F5FCB7F700E025
:1016640003A707D16D9B23A8E7D003A707D113676E
:10167400870223A8E7D07300501098408177FD17A4
:101684005447F58F5CC70F1000009840B70702005D
:101694001CC7930700F8173600002301F65C973740
:1016A40000009387275B9C439C439D83858B639FAA
:1016B400A700930760197CD354C737F700E083274A
:1016C40007D193E787002328F7D02DBF9307E01BAA
:1016D400DDB7FC52A5F39DBF973700009387475AA7
:1016E4009C438847D847798D09C988C79387018760
:1016F40003A30700630303000283828017370000FB
:10170400130747588346B7019737000083C7575AD2
:101714004C4BB697FD8B33D7F50097360000A38367
:10172400F65697360000A385F658058B15EF173744
:10173400000003473758B3F7E70281460147130512
:10174400000233D6E500058A1378F70F19CA6397A8
:10175400D70097370000A38707538280850693F646
:10176400F60F0507E31FA7FC8280973700009387D5
:10177400A7349C43011122CC4AC806CE26CA4EC6C1
:101784008297973700009387E751804701496301A7
:10179400A406BE8463668506018D135455009737ED
:1017A400000083C7C74F1379F5016360F4049739C8
:1017B40000009389E935993703A88400973600001F
:1017C40083C6E64D139756004297158C3A8683A537
:1017D4004900636407016364B7003306B740973771
:1017E400000023A5C74CE378D4FC16043369240114
:1017F400F24062444A85D2444249B249056182803A
:10180400973700009387C730DC43338487402295A1
:1018140069B7973700009387A746984389679387EA
:1018240007F47CD3973700009387C74A9C4383A669
:101834000709139656006358060083A607091396F2
:101844006600634406007453FDF282804111B7E7D9
:1018540000E022C480433707200006C6798C23A009
:10186400E7180F10000011C199E5B7E700E023A0C5
:10187400871001457DA893073500C207C183F19BFA
:10188400C207C183130740036369F70217370000D7
:101894001307074C0843173700001307E74A14439C
:1018A4006392A602173700001307C721185B55DFA0
:1018B400C207DD8D054502974DBF1737000013079A
:1018C400E748C9BF035765002DEB0357450063661E
:1018D400F706B306F7402146637CD60203280500C9
:1018E400938687001D8FAA9661171736000003564A
:1018F40046182392E60023A006012393060014C190
:101904002312F500130786FF973600002393E6168B
:101914002313B5009735000083D5A515B387F5408B
:10192400173700002317F714B7E700E023A0871048
:101934002105B240224441018280084195B7B7E7AE
:1019440000E08C433707200023A0E718F98D0F101F
:10195400000001E523A0B710828097370000938729
:10196400273F03A30700973700009387E73D83A829
:10197400070081469A8763F2170D03A80700636185
:10198400F50C636FA80A138787006368E50A03D61A
:101994006700216705076317E60003C7B1860507DB
:1019A400A385E186173500001305450C03D64700CF
:1019B4000357650023930700329742074183173E7C
:1019C40000002318EE0A638C670217330000130328
:1019D400E337032303006304F30203D366006310B5
:1019E400030283D7460023A0060121073E96210661
:1019F4002392C60097370000239DE706B6879843D5
:101A0400630D1703973600009386463494426306A9
:101A1400D7028356670095E283D6470003564700F2
:101A24001843A106B2962392D70098C38357650042
:101A3400A10717370000231EF702B7E700E019BF1C
:081A4400BE86C2870DBF000041
:101A4C0097110020938141BD175100201301C1DA79
:101A5C001305400097E5FF1F9385055A17060020D4
:101A6C00130606FE63FAC5008322050023A0550069
:101A7C0011059105E3EAC5FE17C50100130545568E
:101A8C00970500209385C5FB1386018263FAC50078
:101A9C008322050023A0550011059105E3EAC5FE3C
:101AAC0013850182973500209385053D6377B5003A
:101ABC00232005001105E36DB5FEFD42739002BCB9
:101ACC008D4273904280930280087390023097E2AB
:101ADC00FF1F9382625293E232007390523097222E
:101AEC0000009382024873901234730020303971D5
:101AFC0001436EC619A0397141536AC866CA62CCDB
:101B0C005ECE19A0397101535AD056D252D44ED64A
:101B1C004AD826DA22DC06DE33016140828241118A
:101B2C004AC026C222C406C68282B24D4101024D71
:101B3C00924C224CB24B4101024B924A224AB2497E
:101B4C004101024992442244B240410182803D430A
:101B5C002A876373C3029377F700BDEFADE59376E5
:101B6C0006FF3D8ABA960CC34CC30CC74CC7410741
:101B7C00E36BD7FE11E28280B306C3408A0697025C
:101B8C00000096966780A6002307B700A306B7004F
:101B9C002306B700A305B7002305B700A304B700BD
:101BAC002304B700A303B7002303B700A302B700B5
:101BBC002302B700A301B7002301B700A300B700AD
:101BCC002300B700828093F5F50F93968500D58D91
:101BDC0093960501D58D61B7939627009702000067
:101BEC0096968682E78086FA9680C1171D8F3E9660
:101BFC00E374C3F8A5B73367B500FD530D8B79E7D4
:101C0C00B7877F7F9387F7F710419441B372F60043
:101C1C003363F600BE92B3E262006397720C6318F2
:101C2C00D6065041D441B372F6003363F600BE922F
:101C3C00B3E262006398720A631BD60410459445A4
:101C4C00B372F6003363F600BE92B3E262006391A6
:101C5C00720A631ED6025045D445B372F600336344
:101C6C00F600BE92B3E26200639A72086311D60268
:101C7C0010499449B372F6003363F600BE92B3E296
:101C8C006200639372085105D105E30FD6F6131762
:101C9C00060193970601631CF7001357060193D7AF
:101CAC0006013305F7409375F50F91E98280418366
:101CBC00C1833305F7409375F50F91E1828013775B
:101CCC00F70F93F7F70F3305F740828003460500B3
:101CDC0083C60500050585056313D60065FA330533
:101CEC00D640828011059105E312D6FE0145828013
:101CFC002105A105E31CD6FC014582803105B10507
:101D0C00E316D6FC014582804105C105E310D6FCE3
:101D1C0001458280B717004003C777051377E70F9B
:101D2C00A38BE704130700F8A38DE7043D47238C2E
:101D3C00E70413075003A38CE70403C7A705137725
:101D4C00D70F238DE7048280B717004003C7E70243
:101D5C000D8941111377C70F498F93068008F3B68D
:101D6C00068093F6860836C60100010093067005BE
:101D7C002380D704930680FA2380D7040100010046
:101D8C002387E70223800704B247F3A707800100EB
:101D9C0001004101828041112A83014E930E407E45
:101DAC00130F0019930F400663E56E129308001988
:101DBC0013034006B3781503854E0D4FA14F3373B3
:101DCC0065020D891335150063EFBE121308F6FF7B
:101DDC00794672984208135808013307C70213D684
:101DEC001700BE0732976146B3F6C6021306807021
:101DFC00B386C6023697A166F58F42075D8FB7167C
:101E0C00004083C7F60293F70708A303F1000346CB
:101E1C00710083C7F60293F70708E394C7FE834764
:101E2C007100B716004093F7F70F638807129307FA
:101E3C008008F3B7078093F787083EC401000100C0
:101E4C00B7170040930670052380D704930680FAD9
:101E5C002380D7040100010023AA070383C61703BC
:101E6C0093E60608A388D70223800704A247F3A7AA
:101E7C000780010001001166B71700407D16D45B86
:101E8C00C85F93854703A98EF18EF5FA93068008F7
:101E9C00F3B6068093F6860836C601000100930659
:101EAC0070052380D704930680FA2380D7040100A1
:101EBC00010098C103C7170313670704A388E7023F
:101ECC0023800704B247F3A70780010001004101FA
:101EDC0082807D133368E3039308E016630E0800D9
:101EEC003368F3039308D016630808009378330023
:101EFC0093B818009388D81633081E01131E0801D6
:101F0C00135E0E0155B56393E5030548638608001F
:101F1C000148630303002A8871087298FD15131E8B
:101F2C000801C205135E0E01C18179BD13F81500BD
:101F3C0063F4BF007908D5B713381800E5BF83C721
:101F4C00F60293F70708A303F1000346710083C759
:101F5C00F60293F70708E394C7FE8347710093F7E3
:101F6C00F70FF1DFE9B531714AD966CB06DF22DD17
:101F7C0026DB4ED752D556D35AD15ECF62CD6AC925
:101F8C006EC7AA8C02D8EF0010122A89930780081A
:101F9C00F3B7078093F787083EDA01000100B71703
:101FAC000040130770052380E704130780FA238091
:101FBC00E7040100010003C7F7021377770FA3872B
:101FCC00E70203C7F70213678700A387E7022380A2
:101FDC000704D257F3A70780010001000545AD3374
:101FEC00130780C13347E902116A93070AE8930685
:101FFC005002BD69930BA004814A014B1304800865
:10200C00930470057D1AB347F9023307D7023EC01B
:10201C00FD873ECC938709A69309803E3347F70290
:10202C003AC27D873AC4334739038549B39999013C
:10203C0093D93940B306D702B30B7703B3C6F60274
:10204C00B3CBFB0236C6FD8636C893D6FB4136CEE3
:10205C00B7460F00938606243349D90285669386CA
:10206C0006FAB3969601B389E90213076055330952
:10207C00D90293060010B389E9023349D902B3C9D6
:10208C00F9029316390036CA37190040FD8636D04E
:10209C00930D090493D7F9413ED2F336048093F69D
:1020AC00860836DC01000100930770052380FD00D3
:1020BC00930680FA2380DD00010001008346390578
:1020CC0093F6860FA309D9048346390593E61600C7
:1020DC00A309D90423800D00E256F3A60680010063
:1020EC000100130C80FA116DF336048093F6860808
:1020FC0036DE01000100930770052380FD0023806C
:10210C008D010100010083463905216693E6060224
:10211C00A309D90483560905B3E6A6012318D904EB
:10212C0083560905D18E2318D90423800D00F2564D
:10213C00F3A60680010001008346390593F60602DA
:10214C006389061803463905218A6DDE0818612F4C
:10215C007336048013768608B2C201000100238016
:10216C009D0023808D0101000100B717004003C6BC
:10217C0037051376F60DA389C70403C63705136616
:10218C000602A389C704835609052166B3E6A60196
:10219C002318D90483560905D18E2318D90423801A
:1021AC000D009646F3A60680010001008346390512
:1021BC0093F606026386061483463905A18AEDFE62
:1021CC0097E0FF1FE78060ECAA8636D497E0FF1FEC
:1021DC00E780A0EBA256E30AD5FE835609054255CB
:1021EC00B3E6A6012318D904292F83463905A18A01
:1021FC00EDDE035609058346290582473376CA006E
:10220C00B306DA0293D5F641B296B388F640E247AC
:10221C0033B8C6002E983308F840A247B3B616015F
:10222C003308D84063C70701631DF800924763FA6F
:10223C001701C247634DF80E63950701B24763E877
:10224C00F80E894663E7660FF2469315180013D310
:10225C00F8015E8613951800B365B30042D646D4D8
:10226C00EF80D1793258050B137BFB0F63470001CC
:10227C0063120838A258638F083613081500B3365A
:10228C00A800B69513D6F5013298B336C800AE96B1
:10229C0013581800FE06B3E6060173360480137655
:1022AC008608B2C60100010023809D0023808D01A9
:1022BC00010001000356C902B296C206C182231660
:1022CC00D90223800D00B646F3A60680010001005A
:1022DC0021BDF336048093F68608B6C001000100D8
:1022EC0023809D0023808D01010001008346390568
:1022FC0093E60602A309D90423800D0086460DBD82
:10230C00F336048093F68608B6C4010001002380DE
:10231C009D0023808D01010001008346390593E661
:10232C000602A309D90423800D00A646A5BDE30D22
:10233C000BF0F336048093F68608B6C80100010052
:10234C00930680FA23809D002380DD0001000100AC
:10235C008346390593F5FC0F93F6860FA309D90430
:10236C0083463905CD8EA309D90423800D00C646BA
:10237C00F3A6068001000100130580FA0346390517
:10238C00930639051D8A63149629733604801376D7
:10239C008608B2CC01000100130680FA23809D0050
:1023AC002380CD000100010003C606001376F60D54
:1023BC002380C60003C60600136606022380C600EF
:1023CC00835609051166D18E2318D9048356090545
:1023DC002166D18E2318D90423800D00E646F3A67E
:1023EC00068001000100130680FA8346390593F636
:1023FC0006026388062483463905130C3905A18A25
:10240C00FDDA0818CD21F336048093F68608B6D091
:10241C0001000100930680FA23809D002380DD00DB
:10242C000100010083460C00116693F6F60D2300A3
:10243C00DC0083460C0093E606022300DC00835686
:10244C000905D18E2318D904835609052166D18E2E
:10245C002318D90423800D008656F3A606800100AC
:10246C000100130680FA8346390593F6060263854C
:10247C00062083463905A18AEDFE97E0FF1FE78011
:10248C00C0C02A8C97E0FF1FE78020C0E30C85FFBB
:10249C008356090511664255D18E2318D90495210E
:1024AC008346390513063905A18AFDDAF336048013
:1024BC0093F68608B6D401000100930680FA2380B7
:1024CC009D002380DD00010001008346060093F689
:1024DC00F60D2300D60023800D00A656F3A6068029
:1024EC00010001008356090503462905D247B3763E
:1024FC00DA003306CA021305800C9355F641369662
:10250C00330DF6408257333CD6002E9C3336A60151
:10251C00330CFC40330CCC403308850392564E866A
:10252C00B335A5033305A503C295EF80314D634642
:10253C008001631E0C16630C0D1613061500333543
:10254C00A6002E959356F5013696B335D600AA956E
:10255C009396F50105828585D18E6346B000639D07
:10256C00051A638B061A0356C90215823305D60069
:10257C003336C500B2956348B00063910524130649
:10258C00F00F637DA622894663F3561593078008E6
:10259C00F3B7078093F78708BED601000100371701
:1025AC000040930770052300F704930780FA23007B
:1025BC00F704010001008356C70289678117D58F84
:1025CC00C207C1832316F70223000704B657F3A7EB
:1025DC00078001000100FA506A54DA544A59BA597A
:1025EC002A5A9A5A0A5BFA4B6A4CDA4C4A4DBA4D43
:1025FC00296182801308F5FF3335A800FD152E954F
:10260C001356F5013298B336C800AA9651B1F33679
:10261C00048093F68608B6CA0100010023809D0051
:10262C002380AD000100010083463905CD8EA3093E
:10263C00D90423800D00D646F3A6068001000100C4
:10264C0035BBF336048093F68608B6CE0100010044
:10265C0023809D002380CD000100010083463905B5
:10266C0093E60602A309D90423800D00F646F3A6CF
:10267C0006800100010095BBF336048093F68608B2
:10268C00B6D20100010023809D002380CD00010003
:10269C0001008346390593E60602A309D904238079
:1026AC000D009656F3A60680010001006DBB930643
:1026BC00F5FF33B5A600FD152E959355F501AE9695
:1026CC00B3B5B600AA951396F501858269B5F336B4
:1026DC00048093F68608B6D801000100930680FAB0
:1026EC0023809D002380DD00010001008356C90278
:1026FC000566011693F6F60FD18EC206C18223161B
:10270C00D90223800D00C656F3A6068001000100F5
:10271C00850A93FAFA0F51B233E6B60045C2035656
:10272C00C9023305D0403338A000B305B040B3859F
:10273C00054115826345B000D1E16371A608894655
:10274C0063F0560593078008F3B7078093F7870863
:10275C00BEDA01000100B717004013077005238093
:10276C00E704130780FA2380E7040100010003D774
:10277C00C7027D8B2396E70223800704D65781BDC1
:10278C00F336048093F68608B6DC0100010093064C
:10279C0080FA23809D002380DD0001000100835618
:1027AC00C9020566011693F6F60FD18EC206C182D8
:1027BC002316D90223800D00E656B9B7930780087B
:1027CC00F3B7078093F78708BEDE010001003717C7
:1027DC000040930770052300F704930780FA230049
:1027EC00F704010001000356C70293975600B297F5
:1027FC00C207C1832316F70223000704F657C1BB97
:10280C00914763EEB70217A701001307275D8A05EE
:10281C00BA959C41BA978287B717004003A7470B1C
:10282C001345F5FF698F23AAE70A03A7070B698FE6
:10283C0023A8E70A03A7070A798D23A0A70A828099
:10284C00B717004083A6470B1347F5FFF98E23AA51
:10285C00D70A83A6070B558D23A8A70A83A6070AB8
:10286C00758F23A0E70A8280B717004003A7470B98
:10287C00498F23AAE70A03A7070B1345F5FF45BFAA
:10288C00B717004083A6470B1347F5FF758F23AA94
:10289C00E70A03A7070A598D4DB7B717004003A7DE
:1028AC00470B498FEDB7B717004088474205418168
:1028BC009377050491EB9377F5013755E8011305F0
:1028CC0005803345F50282809377050C13070004CD
:1028DC006397E7009377F50137459C1CCDB72165CD
:1028EC00130505D0828037E700E01C435443A183D5
:1028FC00E206D58F1CC1FD572320F7182322F718A9
:10290C00828013178500B7E700E023A0E7106181F0
:10291C0023A2A7108280B7F700E08847CC478280BB
:10292C00814737370040A14663C4C7003285828097
:10293C000345B740E38EA6FE3385F500034505003D
:10294C0085072304A740CDB797F7FF1F9387C74C84
:10295C009C4317270020130727523E95636EE50012
:10296C0017470020130747C96368A70017F7FF1F15
:10297C002324A74A3E858280FD57EDBF411122C416
:10298C0006C62A840D372947B307E502B2408D836A
:10299C00B3D7870222449507B3D7E70237370040F5
:1029AC00C207C1832316F740410182807165411132
:1029BC001305052006C6D937B7370040130770F842
:1029CC002381E7400D47A381E74013070004A38050
:1029DC00E74005472387E740B24041018280373703
:1029EC000040834727401A0593F7F703C98F93F7E5
:1029FC00F70F2301F7408280B737004003C7174019
:102A0C0019C9D98DA380B74003C707401367870046
:102A1C002380E740828093C5F5FFF98DA380B740F2
:102A2C008280B73700402147B736004091E1828061
:102A3C0003C6B740E30CC7FE05050346F5FFFD15BD
:102A4C00C2052384C640C181D5B78147B736004043
:102A5C0003C7A6401396070141821377F70F19E3BA
:102A6C003285828003C686403307F5008507230034
:102A7C00C700F9BF2380018223A20182B71700404F
:102A8C0003A7070CB706C0FFFD16758F23A0E70C34
:102A9C0003A7070DB7064000558F23A8E70C03A723
:102AAC00070C3D9B23A0E70C03A7070D1367070139
:102ABC0023A8E70C828023A2A18213064006894535
:102ACC0003C5C1826F307149B717004003A5470C8D
:102ADC0083A7470C598113451500C18B058999E3D0
:102AEC001365250083C70182638CA7002380A18214
:102AFC0001C99387418203A3070063030300028388
:102B0C00828011456FF02FC6411193962500AA853E
:102B1C002D4506C697E0FF1FE780E0A8B2400145AF
:102B2C0041018280411126C29394250022C44AC0DF
:102B3C002A843289A686AA850146254506C697E0D1
:102B4C00FF1FE78040A6A6864A86A285294597E006
:102B5C00FF1FE78040A5B240224492440249014540
:102B6C0041018280011122CC06CE3714004026CAC6
:102B7C004AC84EC652C483447405034AB4058349FB
:102B8C00840503499405EFF0EF988347A40593F46B
:102B9C00F40F137AFA0F93E71700230DF40493F94B
:102BAC00F90F1379F90FB717004003C7A705058B69
:102BBC006DFF03D5C705A38D4705238C3705A38C63
:102BCC002705A38B9704F2406244D2444249B24990
:102BDC00224A0561828041119397050122C406C6E1
:102BEC00C1872E8463DA0700EF30110019C1EF3072
:102BFC0081732165218D1DA093F7150013C5150058
:102C0C0091EF93F7250099CFC1351306000A89453A
:102C1C0003C5C182EF30713413452400B240224405
:102C2C00410182809397250163D00702EF50E17C2C
:102C3C00C93D37F60200130606E0896503C5C1825B
:102C4C00EF30B13109657DB7939715010145E3D795
:102C5C0007FC17A501001305251EEF803173130621
:102C6C000064916503C5C182EF30312F116559B7EE
:102C7C001D71494697A501009385851717B501006D
:102C8C001305851886CEA2CC97E0FF1FE780600C59
:102C9C0001E917A501001305E516EF80316F01A0BE
:102CAC0037F700E0795610CBFD5654CBB7E700E070
:102CBC00056423A087109306F00214C323A0871881
:102CCC000100010017E7FF1F1307075223A4E1823D
:102CDC004157A38AE740130600048145080897E092
:102CEC00FF1FE780E003970700209387E7703EC83B
:102CFC00A167938707E03ECCB707010593870710C0
:102D0C003ECEED472310F10285472301F1029707D0
:102D1C0000009387A7DFBEC2970700009387C7E028
:102D2C00BEC48567938757D12312F1029707000021
:102D3C009387A7BE3ED8B7F5070097070000938787
:102D4C00A7E23EDC8146970700009387C7DB300083
:102D5C00E10519453EDE231A810097E0FF1FE7804D
:102D6C00808418088147994630003E960346060039
:102D7C0085070507A30BC700E398D7FEC24791C789
:102D8C000357410185676373F70001A00808EF3012
:102D9C00B16BAA8501C917A501001305E507EF80E2
:102DAC00B14A01A0F64066442561828041111705A5
:102DBC000000130585E206C622C4EF30316513848A
:102DCC00C1822300A400212875310345040022444C
:102DDC00B24013060032896541016F3011187971C8
:102DEC0006D613078008F337078093F787083EC28F
:102DFC0001000100B7170040930570052380B7044C
:102E0C00130680FA2380C7040100010083C6F70271
:102E1C0093F6A60FA387D702238007049246F3A646
:102E2C0006800100010073370780137787083AC4C6
:102E3C00010001002380B7042380C70401000100B6
:102E4C0003C7F70213672700A387E7022380070451
:102E5C00A247F3A70780010001000545EFE0DFEE74
:102E6C004D31814701478146054685451305407E16
:102E7C00EFE07FF268005146814597E0FF1FE78045
:102E8C0020EAB707C0A83EC8B787E803938707D0E6
:102E9C003ECA680097D7FF1F9387A7503EC6EF30F6
:102EAC00D17FB250456182801387C1628147BA8558
:102EBC00130690028356070089CE139547002E9572
:102ECC005441139836006346080013982600635744
:102EDC00080085074107E39FC7FC01458280938664
:102EEC00C162814736871306900283D5060063962C
:102EFC00A50092073305F70082808507C106E3968B
:102F0C00C7FE01458280D8414111A16722C406C683
:102F1C0026C29386B7012A846306D7089387D70302
:102F2C006305F7044DEF97A50100938565F817A588
:102F3C000100130525F0EF80313117A501001305B1
:102F4C00A521EF8071302945EF801134835764003F
:102F5C007D77F98F93E757002313F40089471CC43E
:102F6C00B240224492444101828097A5010093858E
:102F7C0025F417A501001305E5EBEF80F12C17A53F
:102F8C0001001305251FEF80312C2945EF80D12F2F
:102F9C00835764007D77F98F93E757002313F40070
:102FAC008D4775BF97A50100938585F017A5010086
:102FBC00130545E8EF80512917A501001305451DA0
:102FCC00EF8091282945EF80312C835764007D7761
:102FDC00F98F93E757002313F400914749B7AE8458
:102FEC0017A50100130505E597A50100938545EC90
:102FFC00EF809125CC4017A501001305A51BEF8090
:10300C00B1242244B2409244294541016F80D1271A
:10301C00411197A501009385A5E517A5010013059E
:10302C0065E106C6EF805122B240294541016F800F
:10303C00B125411122C497A501009385E5EC2A84A2
:10304C0017A50100130505DF06C6EF80F11F294502
:10305C00EF8091235840A16793879704631BF70473
:10306C0003D5818469C1EFF0803D03D58184853D12
:10307C00835765007D777D17F98F23240500231076
:10308C0005002313F50097A501009385E5E717A527
:10309C000100130525DAEF80311B17A5010013057C
:1030AC00A5FEEF80711A2244B240294541016F8080
:1030BC00B11DDD3B05E197A501009385E5E417A55E
:1030CC000100130525D7EF80311817A50100130552
:1030DC00E5FCC1BF834604001307F00F6390E604C0
:1030EC0097A50100938545E217A50100130585D42A
:1030FC00EF8091154C4017A501001305E5FBEF80FF
:10310C00B1142945EF8051182244B24003C54183C4
:10311C001306803E854541016F3021645C45A285D4
:10312C009C438297D5B7B240224441018280411121
:10313C0022C406C6834705002A849DC397A50100B7
:10314C009385C5DD17A501001305C5CEEF80D10F02
:10315C004C4017A5010013052519EF80F10E49A865
:10316C005841B707CF009387777D631FF70C8357C0
:10317C00E5000356C5000C451385815F1707002039
:10318C00231DF7EE97E0FF1FE780A0B59945138547
:10319C00815FEFF01F89170700201307E7EB8147CA
:1031AC009385815F99463386F500034606008507B3
:1031BC000507A308C700E398D7FE03C7815F9307F1
:1031CC0020086317F70E0357C40085476308F702FE
:1031DC0097A50100938585D417A50100130585C516
:1031EC00EF80910617A5010013058511EF80D1051D
:1031FC002244B240294541016F801109914503C514
:10320C004183EF30216C0355E400EFF0402303556C
:10321C00E400F131835765007D777D17F98F232406
:10322C000500231005002313F50097A501009385D5
:10323C00E5CE17A501001305E5BFEF80F10017A53A
:10324C0001001305A50D5DB7B707CE009387777DF9
:10325C00631AF70297A50100938545CC17A50100C9
:10326C00130545BDEF80417E1C448356E400835515
:10327C00C40003C6070017A501001305A50BEF80BA
:10328C00A17CBDB7B707CC009387777D6302F702AB
:10329C0097A50100938585C817A50100130585B96D
:1032AC00EF80817A4C4017A501001305E50A75B52E
:1032BC00B240224441018280397126DA4AD84ED676
:1032CC00AE84AA89328981457146480006DE22DC2B
:1032DC00EFE0FF8705442313810023143101EF1025
:1032EC00E013930700192305A1003EC64A86FD573B
:1032FC00A6854800A3058100230AF100EF10801475
:10330C00F2506254D2544259B259216182801C4508
:10331C00411106C622C426C209476382E7060D473F
:10332C006382E70A054463918702835505000355C0
:10333C00450017A701001307E7F585460146EF3056
:10334C009078AA8401E901442285B2402244924437
:10335C004101828097A50100938505B717A501004F
:10336C00130545ADEF80416EA68517A50100130529
:10337C00E5E5EF80616D2945EF800171F1B70356EA
:10338C000500035545009307707D01478546B285BE
:10339C00EF30B0742A8445D997A501009385C5B246
:1033AC0017A50100130505A9EF80016AA28517A5D1
:1033BC000100130565E4EF8021692945EF80C16C9C
:1033CC00054459B703560500035545009307707D16
:1033DC000147B166B285EF30F0712A842DD597A5DF
:1033EC000100938565AE17A501001305A5A4EF8018
:1033FC00A165A28517A50100130585E26DBFD84113
:10340C00411122C406C626C22A841DCFA167938708
:10341C00D703630DF706AE8417A50100130585A12C
:10342C0097A50100938585A9EF800162CC4017A573
:10343C000100130525D8EF8021612244B24092444B
:10344C00294541016F80416497A50100938505A72B
:10345C0017A501001305059EEF80015F17A501005C
:10346C00130505CAEF80415E2945EF80E161835762
:10347C0064007D77F98F93E717002313F4008947D5
:10348C001CC4B240224492444101828097A50100A1
:10349C009385C5A217A501001305C599EF80C15AE4
:1034AC0017A50100130585C7EF80015A2945EF8048
:1034BC00A15D835764007D77F98F93E71700231381
:1034CC00F400914775BF411122C406C62A841385A6
:1034DC00C16215E02A8781471308900283580700C0
:1034EC0063900808139447002A942312B400231005
:1034FC00C4002311D4001387C16281479305900245
:10350C008356070099CE630ED60093964700AA9671
:10351C00D44213983600634608001398260063596A
:10352C00080685074107E39DB7FC81471397D70031
:10353C0083576400F976FD16F58FD98F2313F400A9
:10354C00139727016349070013060064854503C5DB
:10355C004183EF3081202285B24022444101828098
:10356C0085074107E39C07F797A501009385059311
:10357C0017A501001305058CEF80014D17A501005F
:10358C00130585BBEF80414C2945EF80E14FE1B736
:10359C00854769BF411122C44AC02E842A8997A548
:1035AC0001009385E59317A501001305A58806C6B0
:1035BC0026C2EF8061492945EF80014D0545EFF0AA
:1035CC00001615C5AA8497A501009385659117A5CA
:1035DC00010013052586EF802147A68517A501005C
:1035EC00130545C7EF8041462945EF80E149228507
:1035FC00EFF0FF8E19C583576500139737016341B0
:10360C00070685462286CA857D3D0DE997A50100F2
:10361C009385058D17A501001305C581EF80C14267
:10362C0017A50100130545C5EF8001422244B240A5
:10363C0092440249294541016F80014597B7010029
:10364C00938787975CC503C7A1848357650019CFFF
:10365C007D77F98F93E717002313F50085471CC579
:10366C00B240224492440249410182807D77F98F15
:10367C0093E717002313F5009147D5B7011122CC1E
:10368C0026CA2E84AA8497A50100938525871795B1
:10369C0001001305257A06CE32C6EF80E13A2945A2
:1036AC00EF80813E2285EFF09F83B24619C5835788
:1036BC00650013973701634F07042286A6852135D1
:1036CC0005E997A5010093856583179501001305FE
:1036DC006576EF80613717A501001305E5B9EF801A
:1036EC00A1366244F240D244294505616F80C1394C
:1036FC0097B701009387C78C5CC503C7A184835718
:10370C00650011CF7D77F98F93E757002313F500F0
:10371C0085471CC5F2406244D244056182807D77A6
:10372C00F98F93E757002313F5009147DDB741114B
:10373C0022C497A50100938565802A841795010002
:10374C001305456F06C6EF802130A28517A5010031
:10375C00130585D9EF80412F2945EF80E13283D7BE
:10376C00C163C9CF979501009385457D17950100DD
:10377C001305456CEF80412D83D5C16317A501005E
:10378C0013050595EF80412C2945EF80E12F930718
:10379C0020FA03D5C163238CF15EA38CA15E9357F1
:1037AC0085000D469385815F238DF15E31369377CD
:1037BC00F50F2A848DCB9795010093852578179565
:1037CC00010013052567EF8021289375F40F17A5C9
:1037DC0001001305E590EF8021272244B2402945D2
:1037EC0041016F80612A2244B240056603C54183C2
:1037FC001306062C914541016F203176B2402244CC
:10380C00410182801C45411106C622C405476387CD
:10381C00E7000947638CE704054505A083550500BF
:10382C000355450017A701001307C7A68546014697
:10383C00EF3070292A8411E50145B2402244410140
:10384C008280979501009385E56817950100130513
:10385C00655EEF80611FA28517A501001305059712
:10386C00EF80811E2945EF8021227DB7035605008C
:10387C00035545009307707D05478546B285EF30AB
:10388C00D0252A8455D9979501009385A564179561
:10389C0001001305255AEF80211BA28517A50100F5
:1038AC001305859575BF411122C4179501001305A9
:1038BC0065582E84979501009385455C06C6EF806C
:1038CC00A118A28517A501001305C582EF80C117A9
:1038DC002945EF80611B95476319F4002244B240DF
:1038EC008545054541016FE070672244B2400545AE
:1038FC0041016FE0D062411122C426C22A84AE84F9
:10390C001795010013050553979501009385455EA6
:10391C0006C6EF80611329450588EF80E11629C0A2
:10392C009546014681452685EF20A02E2A840DC997
:10393C00979501009385C55B179501001305854F7D
:10394C00EF808110A28517A501001305A597EF80C4
:10395C00A10F2244B2409244294541016F80C1120B
:10396C00B240224492444101828081476393C70054
:10397C0082803387F500834607003307F5008507FF
:10398C002300D700E5B7011122CC06CE26CA93F747
:10399C0015002E8463890712EFF00FD1AA841DE560
:1039AC00979501009385454E1795010013058548A1
:1039BC00EF808109179501001305456EEF80C10852
:1039CC002945EF80610C13441400F9A003576500DE
:1039DC008567FD177D8FB306F700FD8E8357650055
:1039EC007D76F18FD58F2313F5004DEF9795010060
:1039FC0093858549179501001305C543EF80C104D4
:103A0C001795010013058543EF8001042945EF80CC
:103A1C00A10703D50400EFE0902203D50400EFF0DA
:103A2C000FCC835765007D777D17F98F2313F50035
:103A3C002324050023100500979501009385C544A8
:103A4C00179501001305053FEF80010017A5010034
:103A5C001305C58CEF70517F2945EF80E102138669
:103A6C00C162814632850548930590028357060052
:103A7C00B1C7139746002A975C439394370063CFE2
:103A8C000402F583858B639B070383576700F976E4
:103A9C00FD16F58F2313F7002285F2406244D244C1
:103AAC00056182805C45DC438297E30E05F083D789
:103ABC0064000567D98F2393F40055B7850641063A
:103ACC00E396B6FA09B793F72500ADCF854717F7FC
:103ADC00FF1F231BF75817F5FF1F1305E5578147E9
:103AEC0097F5FF1F9385054841473386F50003463C
:103AFC000600B306F50085072380C600E397E7FEB2
:103B0C0093874184984385476313F702B94517059A
:103B1C0000201305A58CEFE0DFF0354697F5FF1F6D
:103B2C00938505430945EFF02FF923A2018409661B
:103B3C0013060690894503C54183EF2011421344B7
:103B4C00240099BF93F745009DC797950100938575
:103B5C00A540179501001305E52DEF70F16E179533
:103B6C0001001305252FEF70316E2945EF70D171CF
:103B7C001344440015B793F70501638D071493871D
:103B8C0001849C430D476346F7041D463386C702E8
:103B9C00014797F8FF1F9388683517F8FF1F130824
:103BAC0068409D453305E80003450500B306E60073
:103BBC00C6962380A6000507E316B7FE85071147B6
:103BCC00638CE70023A0F184894503C54183EF2072
:103BDC00512F13440401C9B5979501009385C5373E
:103BEC00179501001305052523A00184EF70D165FD
:103BFC002945EF70716917F7FF1F1307272F8147AE
:103C0C0097F5FF1F9385857D354517F8FF1F130822
:103C1C00283439468348D700B386F5002380160133
:103C2C006388A70083480700B306F80023801601B9
:103C3C0085070507E390C7FEB94517F5FF1F130568
:103C4C00E579EFE01FDE979501009385E530179538
:103C5C0001001305251EEF70315F2945EF70D1620D
:103C6C00B54517F5FF1F1305A52EEFE09FDB9795C4
:103C7C0001009385652E179501001305A51BEF70A8
:103C8C00B15C2945EF705160979501009385C52C67
:103C9C00179501001305051AEF70115B97F5FF1FBF
:103CAC0083D5A53D179501001305051CEF70D1595F
:103CBC002945EF70715D394697F5FF1F9385E53AFD
:103CCC000A856531B9450A85EFE0BFD5854723A242
:103CDC00F184DDBD0144C9B301113546979501004E
:103CEC009385452E17A501001305C59006CE22CC51
:103CFC0097D0FF1FE780E00501E917950100130538
:103D0C006510EF70B16801A097E7FF1F9387071F3D
:103D1C003EC4B7F507008567938707CB81461386AA
:103D2C008183E10519453EC697D0FF1FE780A08728
:103D3C0019469385818317F5FF1F1305A52297D08C
:103D4C00FF1FE78000FA34001386818397950100EA
:103D5C00938585631795010013058564EF10B046B4
:103D6C002A840DC9979501009385051E17950100AE
:103D7C001305450CEF70514DA285179501001305E5
:103D8C006525EF70714C2945EF701150F24062447B
:103D9C0005618280EF800000179501001305051D59
:103DAC00EF0070679387C16217F7FF1F1307871225
:103DBC0023A4070023900700C107E39BE7FEEF4015
:103DCC003075EFE0101117E5FF1F130525DAEFE052
:103DDC00C074179501001305651AEFE050112A8481
:103DEC00EF10803FEFA0802EEF00D137EF20E0588E
:103DFC00EF10501AEFC0700B979501009385C51406
:103E0C00179501001305050309C8EF70F143A2854E
:103E1C00179501001305451EADB7EF70F1421795CC
:103E2C0001001305A51FEF7031422945EF70D145F4
:103E3C00EFC0006E85472385F184EF90A01829C54B
:103E4C00979501009385451017950100130585FE84
:103E5C00EF70913F179501001305C51DEF70D13E12
:103E6C002945EF707142979501009385E50D1795E3
:103E7C000100130525FCEF70313D1795010013056A
:103E8C00651FEF70713C01B79797010093878741CD
:103E9C00054781460146814517950100130585416B
:103EAC00EF10705D2A8461D1979501009385C50947
:103EBC0017950100130505F8EF701139A2851795B8
:103ECC0001001305651975BD411117050000130597
:103EDC00C5AB06C622C4EF20715313844183230063
:103EEC00A40017E5FF1F1305A5CAEF00900BED33D7
:103EFC00EFE05FB8170500001305A583EFE0BFBB2B
:103F0C00034504002244B24005661306062C89457D
:103F1C0041016F209104011135469795010093855D
:103F2C00650A179501001305E56C06CE97D0FF1FA7
:103F3C00E78020E201E91795010013056543EF7056
:103F4C00F14401A0EF50B1722AC6EF00B163EF004B
:103F5C00F142EF70E01EF240324505618280411162
:103F6C001305800406C622C497C0FF1FE7806013A8
:103F7C00371400408327840A8D451305002093E7EE
:103F8C0007202324F40AEFE0BF878327840A8545A2
:103F9C001305001093E707202324F40AEFE05F8653
:103FAC008D4513050020EFE0BF85EFE03FA00D45E8
:103FBC00EFE0FFA295450545EFE01FA4B7E700E051
:103FCC003707000823A0E710EFE09FCAEFE01FDEE1
:103FDC009937DD3D97C0FF1FE780805001458280F7
:103FEC004111B2862E86AA852D4506C697C0FF1FA5
:103FFC00E780605BB240014541018280AE8601469C
:10400C00AA85254517C3FF1F6700E35993070004D2
:10401C0063E6C7021D71A2CC2A84080886CE32C67C
:10402C00EF703117B2461008A285294597C0FF1FC3
:10403C00E7806057F640664425618280395582805E
:10404C009387C18418429C4383D6450003450700DF
:10405C0083C5C700035646006396A50083D5E700C9
:10406C00638DD502011106CE2386A7002397D700B6
:10407C00B705CF00DC4B9385757D05077D162EC2E9
:10408C00230001003AC42316C1002317D10099C3A1
:10409C000A858297F2400561828082806D713C08AE
:1040AC003EC6B707E500232291103EC8AA843C08FF
:1040BC003285232611103ECA23248110232021117E
:1040CC002E89EF20204B2A8497950100938505318A
:1040DC0017950100130505D6EF701117A2851795DA
:1040EC0001001305253DEF7031162945EF70D119EC
:1040FC00B705CD009385757D6800EF00702BA28508
:10410C006800EF20C03C014781467000CA852685B7
:10411C00EF00504A15C52A84979501009385052C0C
:10412C0017950100130505D1EF701112A285179593
:10413C0001001305E538EF7031112945EF70D114EA
:10414C008320C11003248110832441100329011002
:10415C0051618280797122D452CC2E842A8A97950F
:10416C00010093852529179501001305A5CC06D6CA
:10417C0026D24AD004424ECE328983594600EF7083
:10418C00B10C035724008306840003566400835546
:10419C0044001795010013052538EF70F10A2945E5
:1041AC00EF70910E9387C1849C4303C7040083C6B0
:1041BC0007016398E6000356440083D6E700630AC0
:1041CC00D6022388E700835644003707CE00130736
:1041DC00777D2397D700DC4B8504FD193AC2230069
:1041EC00010026C4231631012317D10099C30A8577
:1041FC0082974A86A28552855535B25022549254E4
:10420C000259F249624A456182806D713C083EC098
:10421C00B707E5003EC23C083EC4232611102324F8
:10422C008110232291102317010023180100231958
:10423C000100231A0100231B010097E7FF1F83D7FE
:10424C00279799E3C167FD172316F10097E7FF1F26
:10425C0083D7279681EB9387C1849C439C43DC478F
:10426C0083D7070017E4FF1F13048494584C2317BB
:10427C00F10083574400484B2318F10005ED979546
:10428C0001009385251C179501001305A5BAEF7045
:10429C00A17B179501001305E51EEF70E17A294506
:1042AC00EF70817E8320C110032481108324411080
:1042BC005161828097E7FF1F83C7F78F99E7EF2043
:1042CC0081065C4C23AA0700F1BFFD1797E6FF1F80
:1042DC00A383F68E03560701834704014C470A85D6
:1042EC00230BF100EF20C01C9387C1849C43014732
:1042FC00814688430A866C00EF00D02BAA8405C93E
:10430C00979501009385051417950100130585B247
:10431C00EF708173A6851795010013056517EF7073
:10432C00A1722945EF7041765C4CC84B49BF97E7A9
:10433C00FF1F83C75788EDDB1044854503C50185F6
:10434C00EF20A14185B7411122C426C22E84AA8434
:10435C00979501009385051117950100130585ADFF
:10436C0006C6EF70616EA685179501001305052230
:10437C00EF70816D2945EF7021715C4CDC4B99CB52
:10438C0010442244B240924403C501859145410139
:10439C006F20A13CB24022449244410182805C4E89
:1043AC00DC4BA1C7B9C1411122C4179501001305FB
:1043BC0065A82E84979501009385050A06C6EF70B3
:1043CC00A168A285179501001305851DEF70C167C3
:1043DC002945EF70616B2244B24003C50185130679
:1043EC004006914541016F2041378280411122C422
:1043FC0017D4FF1F1304C47D1C4C06C689C7DC43AD
:10440C0099C34C4882975C4CC84BEF10D1715C4CF3
:10441C00B240224423AA0700410182801387B18451
:10442C0083470700850793F7F70F93968701E1867B
:10443C0063C70600A385F184034507008280A3852A
:10444C000184DDBF83574500638D070C01114AC8F9
:10445C0017D9FF1F1309C97552C4032AC90106CE07
:10446C0022CC03274A0126CA4EC6F15729EB130763
:10447C00D00DFD576365C7042A84130586004205D9
:10448C004181B284AE89EF10316F232AAA00032533
:10449C00C9015C4995EF979501009385A5F817958F
:1044AC00010013052599EF70215A1795010013058A
:1044BC00A509EF7061592945EF70015DDD57F24098
:1044CC006244D2444249B249224A3E850561828007
:1044DC0093874400B705CF002319F5009385757DAC
:1044EC003105EF00E06C0325C901834564003105FB
:1044FC00EF10F07D0325C9012686CE853105EF101E
:10450C00307B7146A2854A85EF70A148504401CAA0
:10451C00854503C50185EF20412481474DB7F53111
:10452C00EDBFFD573E858280411122C417D4FF1F79
:10453C00130404685C4C06C6C84BEF10D15E5C4C8F
:10454C002244B24023AA070003C5018585454101D9
:10455C006F2041371387C1841C43BDCB411126C248
:10456C00BA84D84306C622C439CF2300B50058C13B
:10457C0023A4070023A2070097D7FF1F9387476543
:10458C00DC4F2A84DC4B99C329558D3597D7FF1FF7
:10459C0093870762DC4FDC4B91C37937894503C5A0
:1045AC000185EF202132914503C50185EF20813132
:1045BC009C4003A347016308030022852244B240B8
:1045CC00924441010283B2402244924441018280D0
:1045DC0082800111328506CE22CC26CA2E84EF10A1
:1045EC007079AA8497950100938545E2179501008F
:1045FC0013054584EF70414503078400035664009E
:10460C0083554400A68617950100130525EEEF701F
:10461C00A1432945EF70414797D7FF1F83C7A75B7D
:10462C00639797000145D93381450A852537F240B8
:10463C006244D244056182806D712324811023264B
:10464C0011102322911093F715002E8489CFEFF0CF
:10465C00DFBB134514008320C11003248110832475
:10466C0041105161828093F725008DC341468145ED
:10467C00280897C0FF1FE780A06A2555853B2808AE
:10468C009305F00FC13D13452400F1B793F7450096
:10469C000145F1D33C083EC0B707E5003EC23C08DB
:1046AC003EC4231701002318010023190100231A0B
:1046BC000100231B010097D7FF1F83D7675199E394
:1046CC00C167FD172316F10097D7FF1F83D76750DB
:1046DC0081EB9387C1849C439C43DC4783D70700C1
:1046EC0017D7FF1F1307C74E2317F100544F8357DB
:1046FC0047002318F100DC4A9DE79795010093854C
:10470C0025D7178501001305E572EF70E133179576
:10471C000100130525D7EF7021332945EF70C13601
:10472C00134544000DBF97D7FF1F83C7D74A2555A4
:10473C00B5C7FD1717D6FF1FA30FF64803D6060102
:10474C0083470701CC460A85230BF100EF10505626
:10475C009387C1849C4317D7FF1F1307674797A6FE
:10476C0001009386668688430A866C00A125AA847C
:10477C0045D9979501009385A5CF178501001305A1
:10478C00656BEF70612CA68517950100130545D05C
:10479C00EF70812B2945EF70212F2685EFF01FC577
:1047AC0041B75C4D411106C688C3170500001305BF
:1047BC00E5E823A6F184EF206145B2402388A1846B
:1047CC00014541018280EFD2EFB32A8408452E893E
:1047DC00B28909C900C1970500009385C5736105AD
:1047EC00EF00212B81447D5AEF10000463C3A40415
:1047FC008144EF10600463C6A404970700209387DC
:10480C0027C39C43DC47B307F94091872302F4008C
:10481C00638109048327C900B307F4409587A30279
:10482C00F4001C4C89C79C4799C3228582976FD092
:10483C00AFB05C44139714008504BA9723904701DA
:10484C0065B71C48139714008504BA97239007008A
:10485C004DB7832789000547B307F4409587A3021A
:10486C00F40083570400638EE7028DC30947638409
:10487C00E7040D47E397E7FA9797010093874726DC
:10488C001CCC979701009387A72611A89797010036
:10489C00938787EC1CCC979701009387E7EC5CC857
:1048AC0049B797970100938727D81CCC979701009D
:1048BC00938787D8EDB797970100938727271CCC50
:1048CC009797010093878727D9BF85E1EFD22FA552
:1048DC00004618448347940075839D8B6315F7003D
:1048EC00EF00B01948C46FD0CFA58280EFD28FA152
:1048FC0013893500C16442094111AA890144F1149C
:10490C0013590901054A2EC6EF001072B2456346D1
:10491C00A400014541016FD02FA283A709001317F2
:10492C001400BA9783D707006388B7006394970085
:10493C0063742A010504C1BF0545E9BFEFD2AF9BE3
:10494C00AA892E89328BB6843A8ABE8AEF80806718
:10495C004DC12685EF10B0318D4763E5A7007D551D
:10496C006FD0EF9C83DB4400EF0010722A84EF00C1
:10497C00F0729307740031443305850263C5A702B6
:10498C00EF009070EF0050702A84EF0030719307A5
:10499C00740031443305850263CDA702EF00D06E5D
:1049AC009307450019A8EF00706F330585021307B4
:1049BC00F0179307C017E357A7FC2D55E3C277FBFD
:1049CC0063000B02D6865286A6854A85EFF0000E50
:1049DC0041BFEF00B06C330585029307C5FFF1BFF3
:1049EC00832749001385C90083D52700013779F93E
:1049FC00BDB76955B5B797070020239DA7A29707A8
:104A0C0000209387E7A2904381470C463307F500BB
:104A1C00420741836393B700828054461398470042
:104A2C008507C2962390E600D5B797070020938799
:104A3C0027A09C4303C587008280170500200355DF
:104A4C00659F8280EFD2AF8DC1671387D7FF630755
:104A5C00E5026368A700F117630EF50001456FD0FE
:104A6C004F8E1387E7FF630EE500FD171D8D133581
:104A7C001500F5B7EF4040627D15D5BFEF40C03F44
:104A8C00E5BFEF40203ECDBFEFD26F894111AA8424
:104A9C0001442EC6EF00505AB2456346A4000145AE
:104AAC0041016FD00F8A9C48131514003E95835713
:104ABC000500E387B7FE0504E9BF034855008146AE
:104ACC0093F7F60F63E5070181473E8582805845D1
:104ADC0093975600BA9703D727006316B70003D7EE
:104AEC000700E304C7FE8506E1BF83464500014786
:104AFC009377F70F63E4D700814711A81C45131671
:104B0C0057000507B29703D60700E313B6FE3E85A0
:104B1C008280EFC23FFF93170501C187970A0020DF
:104B2C00938A0A916353F00883A70A00C0479C47F5
:104B3C0003570400198D420541816366F500014459
:104B4C0022856FC07FFF12052A94DDBFDC471394CA
:104B5C004900014A3E94834744006341FA02014AEA
:104B6C00834754006346FA028509C20993D90901A7
:104B7C0083A70A009847E3EBE9FCD1B71C4413194F
:104B8C005A00A6853E994A85013709ED050AE1B719
:104B9C005C4413195A00A6853E994A85F53519E1EE
:104BAC00050A7DBFE30209FC61BFAA848149C9B72C
:104BBC00EFC2FFF61C452A8481E79307C5001CC58C
:104BCC001C44231204001CC09307F00F63E9B700C8
:104BDC0093F5F50F2285EF10900F6FC09FF693940D
:104BEC000501C167C18063F7F500A6852285EF102A
:104BFC00B011E5B7C18193F5F50F2285EF10300D9B
:104C0C00A6852285EF10F00DC9BF9707002093876A
:104C1C002782884382801C4599C79707002023A9C7
:104C2C00A780014582807D5582809707002093875D
:104C3C002780984383474500484792073E958280DA
:104C4C00EFC2FFED617100451C183EC6B70780012D
:104C5C003EC81C183ECA8357440002CE02D002CC78
:104C6C00231EF100834784002A8902D22301F1021A
:104C7C003C083ED402D6553F835705002316F1025B
:104C8C00EF4000112307A1025C4003556400F1833F
:104C9C0013F717008347F10252055181F99BD98F05
:104CAC00A307F102EFE0F05139C5AA8403550500C2
:104CBC00EF80203283D704002AD26800231CF10035
:104CCC0083D72400231DF1001C4803D647008C43D6
:104CDC00EF10007E8347B400CA86179601001306B6
:104CEC00268E8117A305F4006C004810EFE0105CD1
:104CFC005D616FC01FE52155E5BF1C45B1CF03C5F4
:104D0C00A700894613576500630BD7028D46630EC7
:104D1C00D70285466300D702130740063305E50228
:104D2C0003C7B700418B15CB83C7B700BD8B335579
:104D3C00F54082801375F5031307803EC5B70967EC
:104D4C001375F50313070771D1BF372709001375C6
:104D5C00F5031307077CD9B701458280EFC23FDC0E
:104D6C0003A98500630409048347B900AE8493F753
:104D7C00070E91CF03459900930520030D8105057E
:104D8C00B305B50288446105EFF0905C05A02E8553
:104D9C00AD372A8401CDD5218325C900B307B54091
:104DAC0063F887002E94B305A440E9FD6FC07FD94A
:104DBC008545C9BFEFC2BFD62A8403D505000111B2
:104DCC0032C636C43AC22EC002CA02CC02CEEF8022
:104DDC00402082452ACA22852ECC813D03570500EE
:104DEC00231EE100EF30D07AA24632469247230FC1
:104DFC00A10036874C08B28622850146EFF01FB41D
:104E0C0005616FC01FD4EFC29FD161711C183EC6E3
:104E1C00B70780013EC81C183ECA3C0800453ED46A
:104E2C00AA8402CC02CE02D002D202D6FD3B83571A
:104E3C00050035592316F102EF3090752307A102B6
:104E4C0009C48357440091E721594A855D616FC0BD
:104E5C005FCF0355640052055181EFE090362A89EB
:104E6C0065D58347B40093F7070E89C713058401F2
:104E7C00EFF0904F83574400231EF10083478400CA
:104E8C002301F1025C4003550900D98313F707088D
:104E9C0083471102231CA10093F7F707D98FA300B6
:104EAC00F10283572900231DF1005C40F18313F7B5
:104EBC0017008347F102F99BD98FA307F102EF800A
:104ECC0040112AD251D183479400680013975700A0
:104EDC008347B400FD8BD98FA305F4001C4803D67F
:104EEC0047008C43EF10C05CA6871787010013079F
:104EFC00276D740005464C102685EFF03FA42A89D7
:104F0C0029D58347B400A685FD8BA305F400B935DC
:104F1C002DBFEFC2DFC0832485FE2A844111268574
:104F2C00EFF0BFDD834734FF93F7070E9DC32AC60E
:104F3C002685EFF0FFD019C9834734FFB245FD8BAE
:104F4C00A309F4FE81C52285EFF0904041016FC0AA
:104F5C005FBF6DDD8327C4FF2685829765F9834784
:104F6C0034FF93F7070E81C72285EFF0F03F03253E
:104F7C0084FE513DE1BFEFC29FB79C4141112A898C
:104F8C0003C7070089472E8493566700638CF6028B
:104F9C000D466382C6049307F0076302F7022E8561
:104FAC00EF10405DAA848149C16B130C490097F73F
:104FBC00FF1F9387E7479C43984763ECE902410145
:104FCC006FC0BFB603D745008547E3FAE7FE2E85D1
:104FDC00EF10205EC1BF03D74500E3F2E7FE2E853C
:104FEC00EF104059AA842285EF10205AC204C98CB4
:104FFC005DBFDC470355A900139A49003E9A9317ED
:10500C000501C187635DF00083570A006395A70211
:10501C0063E574038327CA00034D5A001DA0A167E2
:10502C002167A98F1307F7EFE374F7FE6395090067
:10503C00EFF05FA171FD85099DBF83278A00034DA9
:10504C004A00835DA90003576900216A138BC700CE
:10505C003AC6814A33CA4D01631E5D0197F7FF1FA3
:10506C009387873D9C43E1DBA2866286814526853A
:10507C008297D1B7A1679387F7EF930C4BFF63F03F
:10508C004703B2455A85EFF07F8619CD03278B0075
:10509C00104719CA10436380C4023107D5BFEE858F
:1050AC006685EFF07F9E71FD93861A0093FAF60FDA
:1050BC00130B0B0255B7835644005C43E3EDF6F635
:1050CC0022853AC6EF10003AA1679387D7042A8A43
:1050DC00035D4400324763E897008347D90093E7A8
:1050EC0007F8A306F9001C4766852286E28582979D
:1050FC00C1670844FD17337AFA00529508C0231291
:10510C00A40115BF97F7FF1F9387873298438147F8
:10511C0015C31447814763FFD500939745004C474F
:10512C00BE9519C903C7550081476375E600DC4578
:10513C001606B2973E85828003C745008147E37B04
:10514C00E6FE16069C45F5B7EFC2DF9BAA892E8AB0
:10515C00814497FAFF1F938AAA2D83A70A009847C8
:10516C0063E4E4006FC05F9DDC4713944400014985
:10517C003E9413BB140083474400634BF900014970
:10518C0013BB140083475400634FF9008504F1B737
:10519C000844931759005287DA860146A2853E953A
:1051AC0082990509C9BF4844931759005287DA867A
:1051BC000546A2853E9582990509E9B7EFC23F964F
:1051CC00814517F5FFFF1305456097F7FF1F2393E4
:1051DC0007269D3F6FC0FF9697F7FF1F93874725C4
:1051EC009C4399CBEFC2BF93814517F5FFFF130585
:1051FC00C55D993F6FC0FF948280EFC2BF90411193
:10520C002315E1002E89B284B6893A86814601477E
:10521C00ED452A84EF2001072AC61DCD0356A100B7
:10522C00CE85EF600177CA852285EF20011A0589AA
:10523C0015C1228501462C0023149100EF20E12F8B
:10524C002A8409C5ED452800EF2021122285410151
:10525C006FC09F8E4944FDB76554CDBF5C41FD17AF
:10526C005CC18280EFC2BF8BEF1081429547330542
:10527C00F50281450D816FC0DF8CEFC25F8AEF10A4
:10528C00214195473305F5020D816FC09F8BEFC20D
:10529C001F8903550500EF10315B6FC09F8AEFC269
:1052AC001F88035505003287AE8617D6FF1F03569D
:1052BC00069997F5FF1F9385651881376FC07F8816
:1052CC00EFC2FF85EF50313E6FC0BF87EFC23F8505
:1052DC0097F5FF1F93858516EF20012D01456FC0B3
:1052EC005F86EFC2DF83814517D5FF1F03552591DC
:1052FC00EF20C1176FC0FF84EFC27F8297F5FF1FAD
:10530C009385C514EF20412A01456FC09F83EFC2DE
:10531C001F81814517D5FF1F03556594EF2001159B
:10532C006FC03F82EFC2AFFF2E85EF60C079EF6098
:10533C00102F6FC01F81EFC28FFEEF60F0386FC06F
:10534C005F805C49E1175CC95CC583572501A107E7
:10535C002319F50083570501A1072318F500828056
:10536C00F1473305F50297F7FF1F938727109C43EE
:10537C003E9582808D476317F60603D74600854716
:10538C0063F2E706EFC2AFF9368536842E89EF104B
:10539C00601E39C18357440093140501C18063ED2D
:1053AC0097022285EF10001DFD1423129400930721
:1053BC00A002630EF5009307B0026301F502930798
:1053CC009002631BF5002285EFD0401D31A00146F1
:1053DC00CA852285EF80A02F6FC0AFF62285EF0023
:1053EC00505ADDBF828097F6FF1F938666089C4259
:1053FC00014599CF9843D44217F6FF1F232AE6069E
:10540C006396D70097F6FF1F23A6E6061385C7FE03
:10541C008280EFC2CFF0C9267144330585029145D5
:10542C00EF70100301E565556FC0AFF197F7FF1FE3
:10543C0023ACA7025526330585029145EF70500128
:10544C007DD197F7FF1F23A3A702792697F7FF1F9C
:10545C002396A700512697F7FF1F2392A700978743
:10546C0001009387271B17F7FF1F232DF7FE9707C4
:10547C000000938747ED17F7FF1F2323F7FE014525
:10548C0065B7EFC2CFE9AA8517F5FF1F130505FD18
:10549C00EF1020226FC0EFEAEFC26FE8DD37EF109C
:1054AC00C02297F7FF1F9387A7FC9C4381CF1387DC
:1054BC00C7FE09CB83D5C7FF17F5FF1F1305C5FB27
:1054CC00EFF000696FC0EFE7EFC26FE5EFF0BFF1EF
:1054DC0011C9834785002A8493F7070491E7035584
:1054EC00E5005D3F6FC0EFE58347C50093044501C0
:1054FC0017F9FF1F1309C9F785E3832709005CC956
:10550C0097F7FF1F23A697F683274900E1FF97F72C
:10551C00FF1F23A197F6F9B7FD172306F5006105C8
:10552C00EF6010208307840063C90704834784005D
:10553C0093E707F82304F400EF10610E4205A94726
:10554C0041813375F5028347840093F707FCC98FBB
:10555C002304F4008347D4003E951C402318A40078
:10556C0089CF984319CB8347C400504081458507A8
:10557C003305F502420541810297832709005CC877
:10558C0097F7FF1F23A697EE8327490089E797F724
:10559C00FF1F23A197EE8347C400A9D783550401AD
:1055AC0017F5FF1F130545EDEFF0805A25BFEFC22D
:1055BC000FD797F7FF1F938767119C47014485838B
:1055CC00858B81EFAE84B2853A86EF1060152A8404
:1055DC0009C5EF10600C829408CC22856FC06FD681
:1055EC00EFC24FD241112E8932C6AA89712C324793
:1055FC0013060502CA86970500009385A5D617F5F4
:10560C00FF1F1305A5E5EFF09FFA2A8429CD93041B
:10561C00C50065261946AA852685EF007069854563
:10562C002685EF00506617850100130565FC4E9525
:10563C00834505002685EF0090695C48314681451D
:10564C00A1075CC85CC483572401E1172319F4003B
:10565C0083570401E1172318F4001C4C3E85EFC05E
:10566C000FCFA3042501228541016FC0EFCCEFC2FF
:10567C000FCB4111AA842EC632C4EF104004004D4A
:10568C00B2452246834784000CC050C093F7F70301
:10569C0093E707042304F400231804002685EF0085
:1056AC00B07F83479400A9462317A40013D7370073
:1056BC0005073307D7029D8B85072306F400A30645
:1056CC00E40083C70401D8488507230FF7FE17F7BA
:1056DC00FF1F1307E7D95843232A040093074401FB
:1056EC001DEB17F7FF1F2327F7D817F7FF1F2321F1
:1056FC00F7D817F4FF1F130424D82285EFF0003BD2
:10570C001C44858B5D8D09E581452285EFF0404475
:10571C0041016FC00FC31CC317F7FF1F232CF7D415
:10572C00C9BFEFC2CFBF970500009385E5C4014503
:10573C00EFF05FBF01456FC0CFC0EFC24FBEEFF0BF
:10574C009FBF6FC00FC08347C500A1E7EFC22FBD3D
:10575C002A840355E500EFF0DFD215C98347840096
:10576C0093F7F7FB2304F4001C4091C7DC4381C77B
:10577C004C4001458297EFF01FC717F5FF1F13052B
:10578C00A5CFEFF0603E0355E400EFF0FFD06FC003
:10579C004FBB8280EFC2AFB897F7FF1F938747CDFF
:1057AC0097050000938585D217F5FF1F1305C5CC0F
:1057BC0023A0070023A20700EFF0A02D6FC06FB845
:1057CC001C4D91CBDC4381CBEFC26FB583450700F9
:1057DC0082976FC00FB7828097F7FF1F938707CC14
:1057EC009C4303C50700828097F7FF1F938707CB65
:1057FC009C4303C51700828097F7FF1F938707CA46
:10580C009C4303C52700828097F7FF1F938707C926
:10581C009C4303C54700828097F7FF1F938707C8F7
:10582C009C4303C53700828097F7FF1F938707C7F8
:10583C009C4303C55700828097F7FF1F938707C6C9
:10584C009C4303C56700828097F7FF1F938707C5AA
:10585C009C4303C57700828097F7FF1F938707C48B
:10586C009C4303C58700828097F7FF1F938707C36C
:10587C009C4303C59700828097F7FF1F938707C24D
:10588C009C4303C5A700828097F7FF1F938707C12E
:10589C009C4303C5B70011E11D45828097F7FF1F9C
:1058AC009387C7BF9C4303C5C700828097F7FF1F30
:1058BC009387C7BE9C4303C5D700828097F7FF1F11
:1058CC009387C7BD9C4303C5E700828097F7FF1FF2
:1058DC009387C7BC9C4303D50701828097F7FF1FB2
:1058EC009387C7BB9C4303C52701828097F7FF1F93
:1058FC009387C7BA9C4303D54701828097F7FF1F54
:10590C009387C7B99C4303D56701828097F7FF1F24
:10591C009387C7B89C4303D58701828097F7FF1FF5
:10592C009387C7B79C4303C5A701828097F7FF1FD6
:10593C009387C7B69C4303C5B701828097F7FF1FB7
:10594C009387C7B59C4303C5C701828097F7FF1F98
:10595C009387C7B49C4303C5D701828097F7FF1F79
:10596C009387C7B39C438857828097F7FF1F938711
:10597C00E7B29C4303D5C702828097F7FF1F93873A
:10598C00E7B19C4303D5E70219E11305800C828033
:10599C0097F7FF1F938787B09C4303C5070382804B
:1059AC0097F7FF1F938787AF9C43C85B828097F75D
:1059BC00FF1F938727AE8843828097F7FF1F93873B
:1059CC00A7AD8843828019E17D558280F5DE98422F
:1059DC0065DFFDD917F7FF1F130747CF1847AA87B5
:1059EC007155058B6316072203C507001547E37D28
:1059FC00A7FC03C737001305F0057D171377F70FC6
:105A0C00E364E5FC03C35700E30003FC83C86700B1
:105A1C00E38C08FA03C77700494579171377F70F1A
:105A2C00E364E5FA03C7A70011481305F7FF1375E4
:105A3C00F50FE36BA8F803CE97000D481305FEFF96
:105A4C001375F50FE362A8F803C8B70063090800E3
:105A5C0065181378F80F1305600DE36705F703C598
:105A6C00C700794879151375F50FE36FA8F403C8CF
:105A7C00D7000D457D181378F80FE36705F503D8AB
:105A8C000701930E40175118420813580801E3ED13
:105A9C000EF303C8E7007D181378F80FE36605F3DF
:105AAC0003C827017D181378F80FE36F05F103C8BD
:105ABC008700C54E75181378F80FE3E70EF103D87D
:105ACC006701856E938EBEE06D184208135808016D
